:020000040000FA
:100000000C94CF030C94F7030C94F7030C94F703B0
:100010000C94F7030C94F7030C94F7030C94F70378
:100020000C94F7030C94F7030C94F7030C94F70368
:100030000C94F7030C94F7030C94F7030C94F70358
:100040000C942D170C94F7030C94FB160C94D516F6
:100050000C94F7030C94F7030C94F7030C94F70338
:100060000C9477170C94F70300000000003E5B4FE0
:100070005B3E3E6B4F6B3E1C3E7C3E1C183C7E3C08
:10008000181C577D571C1C5E7F5E1C00183C180016
:10009000FFE7C3E7FF0018241800FFE7DBE7FF30A6
:1000A000483A060E2629792926407F050507407F14
:1000B00005253F5A3CE73C5A7F3E1C1C08081C1C87
:1000C0003E7F14227F22145F5F005F5F06097F017D
:1000D0007F006689956A606060606094A2FFA29468
:1000E00008047E040810207E201008082A1C080836
:1000F0001C2A08081E101010100C1E0C1E0C303884
:100100003E3830060E3E0E06000000000000005F84
:1001100000000007000700147F147F14242A7F2AA0
:100120001223130864623649562050000807030062
:10013000001C2241000041221C002A1C7F1C2A08AE
:10014000083E080800807030000808080808000011
:1001500060600020100804023E5149453E00427F85
:10016000400072494949462141494D331814127FD4
:100170001027454545393C4A494931412111090774
:100180003649494936464949291E000014000000F5
:1001900040340000000814224114141414140041C7
:1001A00022140802015909063E415D594E7C121184
:1001B000127C7F494949363E414141227F414141BC
:1001C0003E7F494949417F090909013E4141517337
:1001D0007F0808087F00417F41002040413F017FA8
:1001E000081422417F404040407F021C027F7F0470
:1001F00008107F3E4141413E7F090909063E4151B9
:10020000215E7F09192946264949493203017F01A8
:10021000033F4040403F1F2040201F3F4038403FA9
:10022000631408146303047804036159494D4300BF
:100230007F4141410204081020004141417F0402F6
:10024000010204404040404000030708002054548D
:1002500078407F284444383844444428384444286B
:100260007F385454541800087E090218A4A49C78BE
:100270007F0804047800447D40002040403D007F1A
:100280001028440000417F40007C047804787C08FA
:100290000404783844444438FC18242418182424CE
:1002A00018FC7C08040408485454542404043F44B3
:1002B000243C4040207C1C2040201C3C4030403CE2
:1002C00044281028444C9090907C4464544C440042
:1002D00008364100000077000000413608000201A6
:1002E0000204023C2623263C1EA1A161123A404092
:1002F000207A38545455592155557941225454780F
:1003000042215554784020545579400C1E527212A7
:100310003955555559395454545939555454580030
:1003200000457C410002457D420001457C407D1234
:1003300011127DF0282528F07C5455450020545496
:100340007C547C0A097F4932494949323A44444441
:100350003A324A4848303A4141217A3A424020787C
:10036000009DA0A07D3D4242423D3D4040403D3C7D
:1003700024FF2424487E4943662B2FFC2F2BFF09A2
:1003800029F620C0887E0903205454794100004496
:100390007D413048484A32384040227A007A0A0A81
:1003A000727D0D19317D2629292F282629292926F4
:1003B00030484D4020380808080808080808382F39
:1003C00010C8ACBA2F102834FA00007B00000814C3
:1003D0002A142222142A14085500550055AA55AA99
:1003E00055AAFF55FF55FF000000FF00101010FF39
:1003F00000141414FF001010FF00FF1010F010F094
:10040000141414FC001414F700FF0000FF00FF1484
:1004100014F404FC141417101F10101F101F1414D0
:10042000141F00101010F0000000001F101010101A
:100430001F10101010F010000000FF10101010100E
:1004400010101010FF10000000FF140000FF00FF4C
:1004500000001F10170000FC04F4141417101714E8
:1004600014F404F40000FF00F7141414141414140A
:10047000F700F7141414171410101F101F1414147D
:10048000F4141010F010F000001F101F0000001FE7
:1004900014000000FC140000F010F01010FF10FF1A
:1004A000141414FF141010101F00000000F010FFAF
:1004B000FFFFFFFFF0F0F0F0F0FFFFFF0000000093
:1004C00000FFFF0F0F0F0F0F3844443844FC4A4A17
:1004D0004A347E02020606027E027E0263554941CC
:1004E000633844443C04407E201E2006027E020203
:1004F00099A5E7A5991C2A492A1C4C7201724C3017
:100500004A4D4D303048784830BC625A463D3E49ED
:100510004949007E0101017E2A2A2A2A2A44445F91
:10052000444440514A444040444A51400000FF0185
:1005300003E080FF000008086B6B08361236243693
:10054000060F090F060000181800000010100030F8
:1005500040FF0101001F01011E00191D1712003C80
:100560003C3C3C0000000000EF03038002CF03008E
:10057000C130ED0464031281E803850078CB0539AE
:100580002C003402F70120EA020000C00123C1015F
:1005900010C5023E28C701863601483701003A01DE
:1005A00055B1020018B603088227F20100260101A6
:1005B000E00F0F312B0C0E084EF1370710030E0918
:1005C00000E10F000E1403110731C148080F0C3170
:1005D000360F118029800000000000240027002A27
:1005E00000000000080002010000030407000000F2
:1005F0000000000000446F6E652100526F756E644C
:100600006564207265637473202866696C6C656428
:100610002920202000526F756E6465642072656326
:10062000747320286F75746C696E652920200054DE
:100630007269616E676C6573202866696C6C6564AD
:10064000292020202020202000547269616E676CD0
:10065000657320286F75746C696E652920202020D1
:10066000202000436972636C657320286F75746C79
:10067000696E6529202020202020202000436972F7
:10068000636C6573202866696C6C65642920202082
:100690002020202020200052656374616E676C6505
:1006A00073202866696C6C65642920202020202036
:1006B0000052656374616E676C657320286F757492
:1006C0006C696E6529202020202000486F72697AAD
:1006D0002F56657274204C696E657320202020208F
:1006E00020202020004C696E6573202020202020CF
:1006F00020202020202020202020202020200054E6
:1007000065787420202020202020202020202020F8
:1007100020202020202020200053637265656E2059
:1007200066696C6C202020202020202020202020A2
:1007300020200042656E63686D61726B202020206E
:1007400020202020202020202020202054696D659A
:1007500020286D6963726F7365636F6E647329001F
:1007600000000000230026002900010204081020D8
:10077000408001020408102001020408102000003B
:100780000000250028002B000404040404040404D1
:10079000020202020202030303030303921811245C
:1007A0001FBECFEFD8E0DEBFCDBF12E0A0E0B1E0CA
:1007B000EAEEF7E402C005900D92A637B107D9F72B
:1007C00023E0A6E7B2E001C01D92A13DB207E1F728
:1007D00013E0CFECD3E004C02197FE010E94E82390
:1007E000CE3CD107C9F70E94A9190C94F3230C94AD
:1007F0000000AF92BF92CF92DF92EF92FF920F93E1
:100800001F93CF93DF936C017B018B01040F151FA6
:10081000EB015E01AE18BF08C017D10759F069910E
:10082000D601ED91FC910190F081E02DC601099572
:10083000892B79F7C501DF91CF911F910F91FF901F
:10084000EF90DF90CF90BF90AF900895FC01538D53
:10085000448D252F30E0842F90E0821B930B54179A
:1008600010F0CF96089501970895FC01918D828D27
:10087000981761F0A28DAE0FBF2FB11D5D968C91C0
:10088000928D9F5F9F73928F90E008958FEF9FEFFF
:100890000895FC01918D828D981731F0828DE80FBB
:1008A000F11D858D90E008958FEF9FEF0895FC0175
:1008B000918D228D892F90E0805C9F4F821B910942
:1008C0008F739927089581EF92E00E94570421E0E9
:1008D000892B09F420E0822F089580E090E0892B95
:1008E00029F00E94630481110C9400000895FC011A
:1008F000A48DA80FB92FB11DA35ABF4F2C91848D81
:1009000090E001968F739927848FA689B7892C93DD
:10091000A089B1898C91837080648C93938D848D30
:10092000981306C00288F389E02D80818F7D808333
:100930000895EF92FF920F931F93CF93DF93EC01F3
:1009400081E0888F9B8D8C8D98131AC0E889F98976
:10095000808185FF15C09FB7F894EE89FF89608379
:10096000E889F98980818370806480839FBF81E0FA
:1009700090E0DF91CF911F910F91FF90EF9008953C
:10098000F62E0B8D10E00F5F1F4F0F731127E02E17
:100990008C8D8E110CC00FB607FCFACFE889F9894F
:1009A000808185FFF5CFCE010E947704F1CFEB8DDA
:1009B000EC0FFD2FF11DE35AFF4FF0829FB7F89423
:1009C0000B8FEA89FB8980818062CFCF0F931F93C1
:1009D000CF93DF938C01D0E0C0E0F801EC0FFD1F56
:1009E0006491662341F081EF92E00E949904892B83
:1009F00011F02196F2CFCE01DF91CF911F910F918F
:100A00000895CF93DF93EC01888D8823B9F0AA89EC
:100A1000BB89E889F9898C9185FD03C0808186FDB9
:100A20000DC00FB607FCF7CF8C9185FFF2CF808108
:100A300085FFEDCFCE010E947704E9CFDF91CF9102
:100A4000089590E0FC01EF51FA4F2491FC01E65922
:100A5000F84F3491FC01E857F84FE491EE23C9F0C8
:100A6000222339F0233001F1A8F4213019F122308A
:100A700029F1F0E0EE0FFF1FE258F84FA591B49175
:100A80008FB7F894EC91611126C030953E233C93CA
:100A90008FBF08952730A9F02830C9F0243049F7D6
:100AA000809180008F7D03C0809180008F7780933C
:100AB0008000DFCF84B58F7784BDDBCF84B58F7D99
:100AC000FBCF8091B0008F778093B000D2CF809120
:100AD000B0008F7DF9CF3E2BDACFCF93DF9390E03C
:100AE000FC01E659F84F24918857984FFC018491F6
:100AF0008823D1F090E0880F991FFC01E952FA4F4A
:100B0000A591B491FC01E258F84FC591D4916111BF
:100B10000EC09FB7F8948C91E22FE0958E238C93B2
:100B20002881E223E8839FBFDF91CF9108958FB79B
:100B3000F894EC91E22BEC938FBFF6CF3FB7F8948B
:100B40008091ED029091EE02A091EF02B091F0023F
:100B500026B5A89B05C02F3F19F00196A11DB11D18
:100B60003FBFBA2FA92F982F8827BC01CD01620F54
:100B7000711D811D911D42E0660F771F881F991F0F
:100B80004A95D1F708958F929F92AF92BF92CF92DC
:100B9000DF92EF92FF924B015C010E949E056B0178
:100BA0007C010E949E056C197D098E099F09683E93
:100BB000734081059105A8F321E0821A9108A108EC
:100BC000B10888EEC80E83E0D81EE11CF11C811428
:100BD0009104A104B10429F7FF90EF90DF90CF902A
:100BE000BF90AF909F908F90089520919E02260F06
:100BF0003327331F21323105ECF42091C202FC016E
:100C000090E080E0243069F082E00895A0919E0297
:100C10002191AC0142585D4FA40FB52FB11D2C930B
:100C20000196861798F380919E02680F60939E024A
:100C300080E0089581E0089508958FEF9FEF089573
:100C40008FEF9FEF08958091770290E091958195C5
:100C500091090895CF93DF93CB01EA01642F0E949D
:100C6000F505CE01DF91CF910895CF93DF931F92C9
:100C7000CDB7DEB7698361E0CE0101960E94F5052C
:100C800081E090E00F90DF91CF910895FC01A5A144
:100C9000B6A18C9192A589238C93A5A1B6A18C9124
:100CA00091A5892B8C930895DC019396ED91FC918D
:100CB0009497908198968C91892380830895DC0184
:100CC0009396ED91FC919497908197968C91892BB6
:100CD00080830895FF920F931F93CF93DF93EC01CE
:100CE0008B018DA981110EC01EBD0DB407FEFDCF75
:100CF0000EBD0DB407FEFDCFDF91CF911F910F9177
:100D0000FF9008958130C9F490E1F92EE9A1FAA18C
:100D1000808117FF0FC09DA1892B8083CE010E9487
:100D20005F06CE010E945406000F111FFA94F110C5
:100D3000EDCFE2CF9EA18923F0CFEF8DF8A11083F4
:100D4000CE010E944606EF8DF8A10083CE01DF910F
:100D5000CF911F910F91FF900C9446060F931F9314
:100D6000CF93DF93EC01162F8DA9811109C06EBDC1
:100D70000DB407FEFDCFDF91CF911F910F91089524
:100D80008130B1F408E0E9A1FAA1808117FF0DC01C
:100D90009DA1892B8083CE010E945F06110FCE0199
:100DA0000E945406015079F7E6CF9EA18923F2CF25
:100DB000EF8DF8A16083CE01DF91CF911F910F914C
:100DC0000C944606CF93DF93EC01ED8DFE8D808170
:100DD0009CA989238083CE010E94AE06ED8DFE8DF5
:100DE00080819BA9892B8083DF91CF910895AF9259
:100DF000BF92CF92DF92EF92FF920F931F93CF9308
:100E0000DF93EC015B016A01215031097901E60EA3
:100E1000F71E01501109040F151F6AE20E94E20635
:100E2000B501CE010E946A06B701CE010E946A0692
:100E30006BE2CE010E94E206B601CE010E946A0674
:100E4000B801CE010E946A066CE2CE01DF91CF911B
:100E50001F910F91FF90EF90DF90CF90BF90AF90D8
:100E60000C94E206FC0185A9811104C091A182A124
:100E70009CBD8DBD08951F93CF93DF93EC01162F7A
:100E8000E881F9810284F385E02D0995112371F041
:100E90006DADCE010E94E206E881F9810688F789EE
:100EA000E02DCE01DF91CF911F9109946EADF1CF6E
:100EB000AF92BF92CF92DF92EF92FF920F931F9368
:100EC000CF93DF93EC0177FD38C08885998568174B
:100ED00079079CF557FD31C08A859B8548175907CE
:100EE00064F569017A015B01E881F9810284F38587
:100EF000E02DCE010995E881F98102A4F3A5E02D4A
:100F000001E010E021E030E0A701B501CE01099534
:100F1000B601CE010E946A06E881F9810688F78948
:100F2000E02DCE01DF91CF911F910F91FF90EF90B7
:100F3000DF90CF90BF90AF900994DF91CF911F9138
:100F40000F91FF90EF90DF90CF90BF90AF900895FA
:100F50008F929F92AF92BF92CF92DF92EF92FF92C9
:100F60000F931F93CF93DF93EC0149015701E88161
:100F7000F98102A4F3A5E02D09959401D8010E94FE
:100F8000CA236B017C01C114D104E104F10409F40A
:100F900083C08DA9811115C081E0C81AD108E1086C
:100FA000F1088FEFC816D806E806F80609F474C0F1
:100FB000BEBC0DB407FEFDCFAEBC0DB407FEFDCF29
:100FC000EBCF8130C9F581E0C81AD108E108F108FA
:100FD0008FEFC816D806E806F80609F45DC00B2D99
:100FE00018E0E9A1FAA1808107FF20C09DA1892B0B
:100FF0008083CE010E945F06CE010E945406000F3E
:10100000115079F70A2D18E0E9A1FAA1808107FFB4
:1010100010C09DA1892B8083CE010E945F06CE0166
:101020000E945406000F115079F7CDCF9EA189235D
:10103000DFCF9EA18923EFCFBA1016C0CC0CDD1CE8
:10104000EE1CFF1CEF8DF8A1B08281E0C81AD10818
:10105000E108F1088FEFC816D806E806F806E1F0B7
:10106000CE010E944606F1CF81E0C81AD108E108FE
:10107000F1088FEFC816D806E806F80669F0EF8D7C
:10108000F8A1B082CE010E944606EF8DF8A1A082A1
:10109000CE010E944606E8CFDF91CF911F910F91BC
:1010A000FF90EF90DF90CF90BF90AF909F908F9088
:1010B00008958F929F92AF92BF92CF92DF92EF925C
:1010C000FF920F931F93CF93DF935C014B016A0153
:1010D000E90177FD52C0DC0118968D919C9168174B
:1010E00079070CF04AC0209709F447C037FF07C0C2
:1010F000C9010196C80ED91ED195C195D109F50136
:1011000082859385C816D906C4F5A6014C0F5D1FCC
:101110009A012150310937FD30C0D7FE03C0EA01E2
:10112000D12CC12C281739071CF0EC01CC19DD0992
:10113000D501ED91FC910284F385E02DC50109955F
:1011400078018E0121E030E0A601B401C5010E94C2
:10115000A807D501ED91FC910688F789E02DC5011E
:10116000DF91CF911F910F91FF90EF90DF90CF9083
:10117000BF90AF909F908F900994DF91CF911F9176
:101180000F91FF90EF90DF90CF90BF90AF909F9026
:101190008F9008958F929F92AF92BF92CF92DF92DD
:1011A000EF92FF920F931F93CF93DF935C016B013C
:1011B0004A01E90157FD52C0DC011A968D919C91BC
:1011C000481759070CF04AC0209709F447C037FF69
:1011D00007C0C9010196C80ED91ED195C195D10984
:1011E000F50180859185C816D906C4F5A6014C0F76
:1011F0005D1F9A012150310937FD30C0D7FE03C071
:10120000EA01D12CC12C281739071CF0EC01CC19AC
:10121000DD09D501ED91FC910284F385E02DC50136
:101220000995780101E010E09E01A401B601C50115
:101230000E94A807D501ED91FC910688F789E02D61
:10124000C501DF91CF911F910F91FF90EF90DF903B
:10125000CF90BF90AF909F908F900994DF91CF91E6
:101260001F910F91FF90EF90DF90CF90BF90AF90C4
:101270009F908F9008958F929F92AF92BF92CF923E
:10128000DF92EF92FF920F931F93CF93DF934C0166
:101290006B015A01E901209709F46CC00115110591
:1012A00009F468C037FF07C0C9010196C80ED91EEE
:1012B000D195C195D109F401A085B185CA16DB0687
:1012C0000CF058C017FF07C0C8010196A80EB91E40
:1012D000119501951109F40182859385A816B90627
:1012E0000CF048C0F601EC0FFD1FAF014150510951
:1012F00057FD40C0B501600F711F9B01215031099E
:1013000037FD38C0D7FE03C0EF01D12CC12CB7FE8A
:1013100003C08B01B12CA12C4A175B071CF0ED0117
:10132000CC19DD09281739071CF08C010A191B0993
:10133000D401ED91FC910284F385E02DC40109955F
:101340009E01A501B601C4010E94A807D401ED9138
:10135000FC910688F789E02DC401DF91CF911F91A0
:101360000F91FF90EF90DF90CF90BF90AF909F9044
:101370008F900994DF91CF911F910F91FF90EF9083
:10138000DF90CF90BF90AF909F908F900895EF9295
:10139000FF920F931F93CF93DF9377FD32C0DC0151
:1013A0001896ED91FC916E177F075CF521153105BC
:1013B00041F137FF07C0F90131964E0F5F1F31959C
:1013C00021953109DC011A96ED91FC914E175F07CA
:1013D000C4F4EA01C20FD31FDE011197B7FD11C09B
:1013E00057FF03C09E0150E040E0AE17BF071CF05E
:1013F0009F01241B350B7801890121E030E00E9418
:10140000A807DF91CF911F910F91FF90EF90089562
:101410002F923F924F925F926F927F928F929F9204
:10142000AF92BF92CF92DF92EF92FF920F931F93F2
:10143000CF93DF93CDB7DEB72C970FB6F894DEBF0E
:101440000FBECDBF3C017C836B835C874B8718014B
:10145000270181E090E05C01A41AB50ACA019195C8
:1014600081959109AC01440F551F5A834983C801E6
:1014700001969E838D83F12CE12C88248394912CFA
:10148000922F91709F8322702887AB014F5F5F4F2F
:101490005A8749878B859C85E816F9060CF07AC037
:1014A000CB84DC84B7FC0CC06C0191E0C91AD10874
:1014B00049815A814E5F5F4F5A834983A40EB51EFE
:1014C0005FEFE51AF50A82E0880E911CA80CB91CA2
:1014D000CE14DF0464F19F81992399F09601220FC5
:1014E000331F4D815E81240F351F82014B815C814A
:1014F0004C195D09B701660D771D8EE893E00E94D7
:10150000C7095885552399F09601220F331F8D8105
:101510009E81280F391F82014B815C814C195D0926
:10152000B3016E197F098EE893E00E94C7094B85CD
:101530005C854C155D0559F15F81552391F094014F
:1015400022503109220D331D820149855A854E19D9
:101550005F096B857C85660D771D8EE893E00E94A0
:10156000C7098885882399F0940122503109220DFA
:10157000331DB3014B855C85641B750B8201498566
:101580005A854E195F098EE893E00E94C709DC86F0
:10159000CB8680CF2C960FB6F894DEBF0FBECDBFA2
:1015A000DF91CF911F910F91FF90EF90DF90CF903F
:1015B000BF90AF909F908F907F906F905F904F9073
:1015C0003F902F900895EF92FF920F931F93CF9328
:1015D000DF9357FD31C0DC011A96ED91FC914E1757
:1015E0005F0754F52115310539F137FF07C0F901BF
:1015F00031966E0F7F1F319521953109DC011896C8
:10160000ED91FC916E177F07BCF4EB01C20FD31F65
:10161000DE011197B7FD10C077FF03C09E0170E097
:1016200060E0AE17BF071CF09F01261B370B780147
:1016300001E010E00E94A807DF91CF911F910F9168
:10164000FF90EF9008958F929F92AF92BF92CF92AA
:10165000DF92EF92FF920F931F93CF93DF93470197
:101660002115310509F44BC00115110509F447C0D6
:1016700037FF07C0F90131966E0F7F1F3195219515
:101680003109DC011896AD90BC906A157B05BCF55C
:1016900017FF07C0F80131964E0F5F1F1195019596
:1016A0001109DC011A96ED91FC914E175F073CF58C
:1016B0006B01C20ED31EE6012197D7FD20C07A012F
:1016C000E00EF11ED7011197B7FD19C077FF03C0D7
:1016D000960170E060E057FF03C0870150E040E0F2
:1016E000CA15DB051CF09501261B370BAE17BF078B
:1016F0001CF08F01041B150B74010E94A807DF91D9
:10170000CF911F910F91FF90EF90DF90CF90BF90FE
:10171000AF909F908F900895EF92FF920F931F9339
:10172000CF93DF93EC0177FD22C0888599856817F8
:101730007907ECF457FD1BC08A859B85481759072C
:10174000B4F47901E881F98102A4F3A5E02D01E068
:1017500010E021E030E0CE010995B701CE01DF9124
:10176000CF911F910F91FF90EF900C946A06DF913B
:10177000CF911F910F91FF90EF9008952F923F927C
:101780004F925F926F927F928F929F92AF92BF9291
:10179000CF92DF92EF92FF920F931F93CF93DF933D
:1017A00000D000D0CDB7DEB76C015B015C834B830A
:1017B00081E090E04C01841A950A2A0151944194E9
:1017C0005108440C551CF12CE12C66246394712CB7
:1017D000422F44704983522F52705A83822F88704F
:1017E000282E2170322E4B815C81E416F5060CF018
:1017F00083C097FC09C0415051095C834B8352E080
:10180000450E511C840C951C8FEFE81AF80A92E0E3
:10181000690E711C860C971C49814423C1F0980104
:101820004B815C814A0D5B1DB6016E0D7F1D8EE8FC
:1018300093E00E948C0B9801A5014E0D5F1D6B81FA
:101840007C816C0D7D1D8EE893E00E948C0B5A818B
:101850005523C9F09801A5018B819C81481B590B28
:10186000B6016E0D7F1D8EE893E00E948C0B9801EF
:10187000A5014E195F096B817C816C0D7D1D8EE881
:1018800093E00E948C0B2220C9F09801A5014E0D17
:101890005F1DB6018B819C81681B790B8EE893E0FC
:1018A0000E948C0B98014B815C814A0D5B1DB60137
:1018B0006E197F098EE893E00E948C0B332009F4A7
:1018C00092CF9801A5014E195F09B6018B819C81C9
:1018D000681B790B8EE893E00E948C0B9801A501A0
:1018E0008B819C81481B590BB6016E197F098EE8CC
:1018F00093E00E948C0B77CF0F900F900F900F907A
:10190000DF91CF911F910F91FF90EF90DF90CF90DB
:10191000BF90AF909F908F907F906F905F904F900F
:101920003F902F900895CF93DF93EC010E943207F0
:101930008FA987FD06C0EB8DFC8D80819AA9892334
:101940008083DF91CF9108950895AF92BF92CF9297
:10195000DF92EF92FF920F931F93CF93DF93EC01EF
:10196000E62E8A01A22E0E9432078FA987FD06C0AB
:10197000EB8DFC8D80819AA989238083ED8DFE8D6E
:1019800080819CA9892380836E2DCE010E94AE06A2
:10199000ED8DFE8D80819BA9892B8083D12CC12C5C
:1019A000B12CCA14DB04E4F48DA97801823079F4F7
:1019B00088A9882361F0F801619171917F01CE01BE
:1019C0000E946A06FFEFCF1ADF0A8701EACFFFEF16
:1019D000EF1AFF0AF8016491CE010E94AE06F2CF21
:1019E0008FA987FD06C0EB8DFC8D808199A9892B7D
:1019F0008083DF91CF911F910F91FF90EF90DF9047
:101A0000CF90BF90AF900895611106C060E220E0D2
:101A100050E040E00C94A50C61E2F9CFFF920F93E7
:101A20001F93CF93DF93EC01F62E8A010E943207B9
:101A30008FA987FD06C0EB8DFC8D80819AA9892333
:101A40008083ED8DFE8D80819CA9892380836F2DFD
:101A5000CE010E94AE06ED8DFE8D80819BA9892B63
:101A600080838DA9F801823099F06081CE010E94B7
:101A7000AE068FA987FD06C0EB8DFC8D808199A9EC
:101A8000892B8083DF91CF911F910F91FF90089553
:101A900088A9882351F360817181CE010E946A0672
:101AA000E8CFCF93DF931F92CDB7DEB7FC01637011
:101AB000668B623071F0633009F188E4613051F473
:101AC00088E2898380E491E09187808780EF90E0CD
:101AD00008C088E8898380EF90E09187808780E460
:101AE00091E093878287AE014F5F5F4F66E3CF013E
:101AF0000E940E0D0F90DF91CF91089588EEE1CFF7
:101B0000FC0187A987FD06C0A38DB48D9C9181A996
:101B1000892B8C9308950F931F93CF93DF931F927C
:101B2000CDB7DEB7182F80E18983AE014F5F5F4FDD
:101B300069ED8EE893E00E940E0D8EE893E00E941E
:101B4000930CE091AB03F091AC0380819091C203C0
:101B500089238083612F8EE893E00E94AE06E09196
:101B6000AB03F091AC0380819091C103892B8083FA
:101B70008091C303811111C01EBC00000DB407FE8B
:101B8000FDCF1EB58EE893E00E94800D812F0F904F
:101B9000DF91CF911F910F9108958130E9F48091E9
:101BA000B90310E087FDEECF08E010E08EE893E087
:101BB0000E945F06110FE091AD03F091AE038081AA
:101BC0009091B703892309F01F5F8EE893E00E948C
:101BD0005406015059F7D6CF8091BD0387FD1BC035
:101BE000E091B503F091B60380819091BA03892307
:101BF0008083E091B103F091B2031082E091AF03D2
:101C0000F091B0038081E091B103F091B2032FEF26
:101C10002083182FB7CF80E0FCCF0895FC016370BC
:101C2000668B8481958126813781613039F06330FC
:101C300029F091878087338722870895318720870D
:101C40009387828708952F923F924F925F926F926F
:101C50007F928F929F92AF92BF92CF92DF92EF923C
:101C6000FF920F931F93CF93DF93CDB7DEB76A97A1
:101C70000FB6F894DEBF0FBECDBF9A8F898F7A83DF
:101C800069834A01D22E18870F833701BC2CDC01EF
:101C900059962D913C915A972115310509F015C19E
:101CA00018968D919C911997681779070CF0D7C1F8
:101CB0001A968D919C91481759070CF0D0C14C2C65
:101CC000512CB6E0CB9E600D711D11247C876B8773
:101CD000161617060CF0C3C1EA2DF0E0FA87E98763
:101CE00093E0EE0FFF1F9A95E1F7F88BEF87CF0196
:101CF000840F951F181619060CF0B1C1A98DBA8D65
:101D000058968C91811104C0BFEABD1508F4D39494
:101D1000A98DBA8DED91FC9111970284F385E02D88
:101D2000CD010995B5E0DB9EC0011124E981FA815E
:101D3000FC83EB83312C212C9C0128593F4F388F99
:101D40002F8B4A2D50E05E8B4D8BEF89F88DE20D85
:101D5000F31D44919E828D82D12CC12C69817A81A0
:101D6000620D731D7A8B698B842F90E09C8B8B8B1B
:101D7000E98DFA8DA081B18140FF82C0F1E0BF12F0
:101D80006FC0AF126DC01C96ED91FC912F8138850C
:101D9000A4014C0D5D1D69897A89898D9A8D0995FB
:101DA000EB89FC89F595E7954E2F5FEFC51AD50AAB
:101DB0006D817E818D899E89680F791F7E836D83F9
:101DC00098E0C916D10481F6AFEF2A1A3A0AEB81DE
:101DD000FC81E40DF51DFC83EB83F5E02F16310447
:101DE00009F0B3CF2F81388526153705B9F0A98DB5
:101DF000BA8DED91FC91B1E0BB1257C0AB1255C04A
:101E000069817A816B5F7F4F0088F189E02D8301C2
:101E100028E030E0A401898D9A8D0995A98DBA8DAD
:101E2000ED91FC9111970688F789E02DCD016A9616
:101E30000FB6F894DEBF0FBECDBFDF91CF911F91DB
:101E40000F91FF90EF90DF90CF90BF90AF909F9059
:101E50008F907F906F905F904F903F902F9009945C
:101E60001E96ED91FC91EF80F88409851A85920108
:101E70004D815E816B817C81898D9A8D099590CF92
:101E80002F8138852615370509F48ACF31E0B31242
:101E900007C0A31205C01C96ED91FC91930178CF69
:101EA0001E96ED91FC917301E0CF6B857C856419E2
:101EB00075090684F785E02D73010F851889920155
:101EC000A401898D9A8D0995A9CFF9013496949131
:101ED000329745915491D91AB7E0DB9E400D511DC0
:101EE0001124F901259134913C8B2B8BFA0125901B
:101EF0003490FA013296749031963491398B32963F
:101F000064903196449041E04C1518F04A1508F061
:101F10007FC0662D062C000C770B7C836B83842D91
:101F2000042C000C990B9E838D83A98DBA8DED91A5
:101F3000FC9111970284F385E02DCD010995512C78
:101F4000D12CC12CEA2DF0E0FA87E9872B2D30E067
:101F50003C872B87A401440D511D47FC5A95588F8F
:101F60004F8B69817A81660D711D67FC7A957E873A
:101F70006D877989C71608F051CF2C2D30E04D813F
:101F80005E81420F531FA985BA854A9FC0014B9FAE
:101F9000900D5A9F900D1124FC01E80DF91DF88B4E
:101FA000EF87852D612C4F89588D420F531F5E8B13
:101FB0004D8B671408F050C044244394480E87703A
:101FC00041F4C1010196EB89FC89E20DF31DD49027
:101FD0001C01D7FE19C0A98DBA8DED91FC91662D1B
:101FE00070E0B1E0BB1219C0AB1217C02D853E8561
:101FF000620F731F0484F585E02D2F8138854D898C
:102000005E89898D9A8D0995DD0C6394842DD1CFDD
:102010001E821D821C821B8288CF4B815C81640FD3
:10202000751FAB85BC856A9FC0016B9F900D7A9F21
:10203000900D112469817A81680F791F0684F785D4
:10204000E02DEF80F88409851A859D014F85588918
:10205000898D9A8D0995D8CF570CC3948ACF6A96EB
:102060000FB6F894DEBF0FBECDBFDF91CF911F91A9
:102070000F91FF90EF90DF90CF90BF90AF909F9027
:102080008F907F906F905F904F903F902F9008952A
:102090008F929F92AF92CF92EF92FF920F931F93E6
:1020A000CF93DF93EC01262F898D9A8D009709F04D
:1020B00051C06A30D1F41D861C868D8948E0849F0A
:1020C000900111248E859F85820F931F9F878E8795
:1020D00081E090E0DF91CF911F910F91FF90EF9001
:1020E000CF90AF909F908F9008956D3089F3CC88FA
:1020F000AD888F898823C1F08C859D8536E0C39E8D
:10210000800D911D1124488559854817590764F49D
:102110004E855F851D861C8638E0A39EC001112474
:10212000840F951F9F878E87EA88FB880889198905
:102130004E855F856C857D85CE010E94230E2C899E
:102140008C859D8546E0249F800D911D11249D87DF
:102150008C87BECF6A3069F41D861C86FC013896D8
:10216000E4912D898E859F85E29F800D911D11241C
:10217000ADCF6D3009F4ACCFFC01349634916317C8
:1021800008F4A6CF3296E491E61708F4A1CFFC013B
:10219000329685909490462F431B342F47E0349F0E
:1021A000800C911C1124F401329634913196E49103
:1021B0003323A9F1EE2399F1CC88F4013596E4910B
:1021C000AD884F89442301F10E2E000CFF0BE30F65
:1021D000F11DCE9EA001CF9E500D11246C857D85F2
:1021E000460F571F68857985641775076CF44E850F
:1021F0005F851D861C86FC013896E491AE9E400DDD
:10220000511D11245F874E87EA88FB880889198948
:102210004E855F856C857D85CE010E94230EF4017D
:102220003496E4912C898C859D85E29F800D911DCB
:1022300011248DCF6F927F928F929F92AF92BF9217
:10224000CF92DF92EF92FF920F931F93CF93DF9382
:10225000EC016B015A0139014801E881F9810284DE
:10226000F385E02D0995E881F9810288F389E02D55
:1022700087019301A501B601CE010995A501480D7D
:10228000591D41505109E881F9810288F389E02DF7
:102290009301B601CE010995E881F9810088F189A1
:1022A000E02D9401A501B601CE010995C60CD71CFD
:1022B000B60161507109E881F9810088F189E02D4A
:1022C0009401A501CE010995E881F9810688F78975
:1022D000E02DCE01DF91CF911F910F91FF90EF90F4
:1022E000DF90CF90BF90AF909F908F907F906F9036
:1022F00009946F927F928F929F92AF92BF92CF92EA
:10230000DF92EF92FF920F931F93CF93DF935C01C5
:10231000EB016A01490138018701DC01ED91FC9173
:102320006217730719F5641675062CF0962D872D24
:102330003A01C92ED82E9601261937092F5F3F4F33
:10234000048CF58DE02DA301BE01C5010995DF9137
:10235000CF911F910F91FF90EF90DF90CF90BF90A2
:10236000AF909F908F907F906F900895461557057E
:1023700091F42617370724F0892D4B01C22FD82F4F
:102380009E01281939092F5F3F4F068CF78DE02DEC
:10239000A601B401DACF0284F385E02D0995D501B9
:1023A000ED91FC910488F589E02D83019401A6014B
:1023B000BE01C5010995D501ED91FC910688F7890B
:1023C000E02DC501DF91CF911F910F91FF90EF900C
:1023D000DF90CF90BF90AF909F908F907F906F9045
:1023E00009942F923F924F925F926F927F928F92B9
:1023F0009F92AF92BF92CF92DF92EF92FF920F9394
:102400001F93CF93DF93EC015B014A01390118015F
:102410002701760189019A01AB01BC018EE893E0A6
:102420000E94791182019101A301B4018EE893E029
:102430000E94791185019E01A201B1018EE893E00D
:102440000E947911DF91CF911F910F91FF90EF9032
:10245000DF90CF90BF90AF909F908F907F906F90C4
:102460005F904F903F902F900895EF92FF920F93BF
:102470001F93DC011A960D911C911B9718962D91B4
:102480003C911997ED91FC9100A0F1A1E02D7B0109
:1024900050E040E070E060E009951F910F91FF90DF
:1024A000EF9008954F925F926F927F928F929F92DA
:1024B000AF92BF92CF92DF92EF92FF920F931F9352
:1024C000CF93DF936C012B015A0139014801DC01E4
:1024D000ED91FC910284F385E02D0995E201640CF5
:1024E000751CD601ED91FC91C615D7055CF40088EA
:1024F000F189E02D87019401A501BE01C60109956E
:102500002196EFCF0688F789E02DC601DF91CF91A4
:102510001F910F91FF90EF90DF90CF90BF90AF9001
:102520009F908F907F906F905F904F9009948F92C3
:102530009F92AF92BF92CF92DF92EF92FF920F9352
:102540001F93CF93DF93EC015B014A016901E8819E
:10255000F9810284F385E02D099595012C0D3D1D2F
:1025600021503109E881F9810488F589E02D78014D
:102570008401A401B501CE010995E881F98106889D
:10258000F789E02DCE01DF91CF911F910F91FF9040
:10259000EF90DF90CF90BF90AF909F908F90099475
:1025A0008F929F92AF92BF92CF92DF92EF92FF9263
:1025B0000F931F93CF93DF93EC015B014A016901F5
:1025C0007801E881F9810284F385E02D0995C80C32
:1025D000D91C860101501109E881F9810488F58927
:1025E000E02D9501A401B501CE010995E881F9819D
:1025F0000688F789E02DCE01DF91CF911F910F91D1
:10260000FF90EF90DF90CF90BF90AF909F908F9012
:102610000994EF92FF920F931F93DC01ED91FC91CF
:1026200000A0F1A1E02D09951F910F91FF90EF906F
:1026300008950F931F93DC01ED91FC91068CF78DAB
:10264000E02D09951F910F9108950F931F93DC01C1
:10265000ED91FC91048CF58DE02D09951F910F9162
:102660000895DC01ED91FC910084F185E02D099441
:102670002F923F924F925F926F927F928F929F9292
:10268000AF92BF92CF92DF92EF92FF920F931F9380
:10269000CF93DF9300D000D000D0CDB7DEB73C01A0
:1026A0006A013E832D83FC82EB825801A41AB50A8D
:1026B000B7FE03C0B194A194B1088D809E80861AA4
:1026C000970A97FE03C09194819491088A149B0401
:1026D0005CF0902F812F0D811E819D838E839C2D18
:1026E0008D2D6B01692F782F0C151D055CF09D81D8
:1026F0008E817E836D83692F782F902F812F8601A5
:10270000C92ED82E1601201A310A2B012D813E81A7
:10271000421A530A57FE03C0519441945108710163
:1027200037FE03C03FEFE31AF30AF594E7948D8177
:102730009E81861797075CF5A1E0B0E0BA83A98374
:10274000C016D1064CF1D301ED91FC910484F585BE
:10275000E02D2B813C81A8016D817E818A149B0430
:102760001CF04D815E81B801C3010995E418F5089C
:10277000F7FE0AC02D813E8189819A81280F391F79
:102780003E832D83E20CF31C0F5F1F4FD9CF2FEF39
:102790003FEF3A832983D4CF26960FB6F894DEBF55
:1027A0000FBECDBFDF91CF911F910F91FF90EF90A2
:1027B000DF90CF90BF90AF909F908F907F906F9061
:1027C0005F904F903F902F900895089590E080E0A3
:1027D00008950E94EE23FB0101900020E9F7319754
:1027E000AF01461B570BDC01ED91FC910280F38198
:1027F000E02D09948F929F92AF92BF92EF92FF9239
:102800000F931F93CF93DF93CDB7DEB7A1970FB68A
:10281000F894DEBF0FBECDBF7C01FA01CB0119A237
:10282000223008F42AE08E010F5D1F4F822E912C7A
:10283000B12CA12CBF01A50194010E948923F901AB
:10284000CA016A300CF5605DD8016E938D01232BAF
:10285000242B252B79F790E080E0109721F0BD0123
:10286000C7010E94EB13A1960FB6F894DEBF0FBE0E
:10287000CDBFDF91CF911F910F91FF90EF90BF904F
:10288000AF909F908F900895695CDECFCF93DF93D8
:10289000482F50E070E060E020E181EF92E00E947C
:1028A000FA13EC0162E471E081EF92E00E94EB1315
:1028B0008C0F9D1FDF91CF9108950F931F93CF939E
:1028C000DF93EC010E94FA138C0162E471E0CE0107
:1028D0000E94EB13800F911FDF91CF911F910F91F9
:1028E00008950F931F93CF93DF93EC010E94EB1396
:1028F0008C0162E471E0CE010E94EB13800F911F06
:10290000DF91CF911F910F910895CF92DF92EF92B7
:10291000FF920F931F93CF93DF9370E060E08EE8F8
:1029200093E00E9435120E949E056B017C01CEE867
:10293000D3E01D861C861F861E868FEF9FEF9B8B24
:102940008A8B998B888B11E01C8B1D8B65E471E061
:10295000CE010E94711480EE9FEF9B8B8A8B998B26
:10296000888B02E00C8B0D8B2AE042ED54E060E096
:1029700070E0CE010E94FA136EE2CE010E94481070
:102980002AE045E050E060E070E0CE010E94FA13DA
:102990002AE046E050E060E070E0CE010E94FA13C9
:1029A00062E471E0CE010E94EB1380E098EF9B8B14
:1029B0008A8B998B888B83E08C8B8D8B20E130E028
:1029C0004FEE5EEB6DEA7EEDCE010E945D1462E497
:1029D00071E0CE010E94EB1380EE97E09B8B8A8B17
:1029E000998B888B85E08C8B8D8B62E571E0CE01B5
:1029F0000E9471140C8B0D8B68E571E0CE010E9472
:102A000071141C8B1D8B68E671E0CE010E9471145D
:102A100063E871E0CE010E9471146EE971E0CE01AD
:102A20000E9471146AEB71E0CE010E9471146EEC89
:102A300071E0CE010E94711461EE71E0CE010E943E
:102A400071146BEF71E0CE010E9471140E949E051B
:102A50006C197D098E099F09DF91CF911F910F910C
:102A6000FF90EF90DF90CF9008951F93CF93DF9367
:102A700085ED8093BC0080917A0290917B02A091B9
:102A80007C02B0917D020796A11DB11D23E0B69591
:102A9000A795979587952A95D1F72091BC0024FD9D
:102AA00003C01092C20252C040917A0250917B0240
:102AB00060917C0270917D02452B462B472B69F378
:102AC0000097A105B10541F025E32A95F1F7000033
:102AD0000197A109B109E1CF80917902C1E0C093CA
:102AE0007802882399F1D091B8001091BA008091B2
:102AF000BC008A7B8093BC0060E082E10E942105DB
:102B000060E083E10E9421051092C202C093C402DA
:102B10001092C30261E082E10E94210561E083E13D
:102B20000E9421058091B9008E7F8093B900809129
:102B3000B9008D7F8093B90088E48093B80085E464
:102B40008093BC001093BA00D093B800DF91CF916E
:102B50001F910895CF92DF92EF92FF920F931F93F0
:102B6000CF93DF93EC016A017B01C114D104E1042E
:102B7000F10431F4C12C42E1D42E4AE7E42EF12CC9
:102B80008FA987FD07C061E00E946D0561E08FA9F4
:102B90000E94210561E088AD0E946D0561E088AD6D
:102BA0000E9421058DA98111A3C040E052E16AE78E
:102BB00070E0C416D506E606F70640F476956795EC
:102BC000579547958F5F8630A1F787E0982F906AD9
:102BD000969599A3809581708AA31BA21CA21DA221
:102BE0001EA21FB7F89480917602811127C0E2E9F6
:102BF000F7E08491E4E7F7E09491E82FF0E0EE0F3E
:102C0000FF1FE952FA4FA591B491EC91E92321F409
:102C100061E08AE00E94210561E08AE00E946D0582
:102C20008CB580618CBD8CB580648CBD61E08DE01D
:102C30000E946D0561E08BE00E946D058091760237
:102C40008F5F809376021FBF8EA987FD21C061E050
:102C50000E946D0561E08EA90E94210564E670E086
:102C600080E090E00E94C30560E08EA90E942105EB
:102C700064E670E080E090E00E94C30561E08EA908
:102C80000E94210568EC70E080E090E00E94C3059E
:102C90008EA987FF0DC020E050E040E061E0CE014A
:102CA0000E94A50C66E970E080E090E00E94C305F8
:102CB00008E615E0C8010196F8016491662309F45D
:102CC00063C00E5F1F4FFC01F490EF2CE894E7F80F
:102CD0002E2DA801CE010E94A50C0E0D111DF7FE90
:102CE000E9CF66E970E080E090E00E94C305E2CFA2
:102CF00008E817E0F12C8130B9F461E08AA50E9460
:102D00006D0560E08AA50E94210561E08CA50E9406
:102D10006D0560E08CA50E9421058BA587FD94CFF1
:102D200060E00E946D0590CFF8018491E82FF0E0FB
:102D3000EE0FFF1FE258F84F859194912F8D38A127
:102D40002817390741F461E08F2D0E946D0560E07E
:102D50008F2D0E942105F3940F5F1F4FF4E1FF12A6
:102D6000E3CF61E08EA50E946D0561E08EA50E9413
:102D700021058FA587FD68CF61E00E946D0561E0A8
:102D80008FA50E94210560CF80EF90E0998788870A
:102D900080E491E09B878A87DF91CF911F910F910B
:102DA000FF90EF90DF90CF9008951F920F920FB693
:102DB0000F9211242F933F934F935F936F937F93C1
:102DC0008F939F93AF93BF93EF93FF9381EF92E025
:102DD0000E947704FF91EF91BF91AF919F918F91E6
:102DE0007F916F915F914F913F912F910F900FBE07
:102DF0000F901F9018951F920F920FB60F921124EB
:102E00002F938F939F93EF93FF93E0910103F091A2
:102E100002038081E0910703F091080382FD1BC04B
:102E2000908180910A038F5F8F7320910B0382172B
:102E300041F0E0910A03F0E0EF50FD4F958F809351
:102E40000A03FF91EF919F918F912F910F900FBEE9
:102E50000F901F9018958081F4CF1F920F920FB69C
:102E60000F9211242F933F938F939F93AF93BF9310
:102E70008091E9029091EA02A091EB02B091EC02FC
:102E80003091E80223E0230F2D3758F50196A11D5C
:102E9000B11D2093E8028093E9029093EA02A09387
:102EA000EB02B093EC028091ED029091EE02A091C2
:102EB000EF02B091F0020196A11DB11D8093ED02C9
:102EC0009093EE02A093EF02B093F002BF91AF9106
:102ED0009F918F913F912F910F900FBE0F901F9058
:102EE000189526E8230F0296A11DB11DD2CF1F927F
:102EF0000F920FB60F9211242F933F934F935F932E
:102F00006F937F938F939F93AF93BF93EF93FF93B1
:102F10008091B900887F803609F44AC0F0F5883284
:102F200009F4A5C018F5803109F499C0B8F48823D4
:102F300009F4F5C0883009F492C0FF91EF91BF9178
:102F4000AF919F918F917F916F915F914F913F9141
:102F50002F910F900FBE0F901F901895883109F494
:102F600086C0803251F78093C10214C0803409F4C6
:102F70009BC040F48033B9F38833F9F68093C102E3
:102F800085ECAEC0803509F483C0883509F494C05F
:102F9000883499F60E943515D0CF883909F48AC053
:102FA00038F5883729F050F4883611F0803729F643
:102FB00083E08093C2021092C00255C0883809F4A1
:102FC00079C0803919F0803809F0B7CF8091C002FC
:102FD000803208F06FC0E091C00281E08E0F8093D4
:102FE000C0028091BB00F0E0E056FD4F80833BC003
:102FF000803B39F0D0F4803A09F477C0883A09F080
:103000009CCF84E08093C20210929F0210929E0295
:10301000F0E0E0E0099580919E0281110FC081E00F
:1030200080939E0210927E0209C0803C09F4A8CFD2
:10303000883C09F4A5CF883B09F07FCFE0919F023F
:1030400081E08E0F80939F02F0E0E258FD4F808177
:103050008093BB0090919F0280919E0229C0809135
:10306000E7028093BB0085EC8093BC0066CF909113
:10307000E6028091E502981758F5E091E60281E0BA
:103080008E0F8093E602F0E0EB53FD4F8081E9CF95
:10309000E091E60281E08E0F8093E6028091BB0012
:1030A000F0E0EB53FD4F80839091E6028091E502C2
:1030B0009817C8F285E8D8CFE091E60281E08E0F3C
:1030C0008093E6028091BB00F0E0EB53FD4F8083DC
:1030D0008091C40281115ECF81E08093C30284EAB3
:1030E0008093BC001092C20228CF85EC8093BC0074
:1030F0001092C2028091C002803230F4E091C0028E
:10310000F0E0E056FD4F10826091C00270E080EA6E
:1031100092E0F0E0E0E009951092C0020ECF10922C
:10312000C10238CFE1EFF2E01382128288EE93E021
:10313000A0E0B0E084839583A683B78384E091E028
:103140009183808385EC90E09587848784EC90E080
:103150009787868780EC90E0918B808B81EC90E064
:10316000938B828B82EC90E0958B848B86EC90E045
:10317000978B868B118E128E138E148EAEE8B3E071
:1031800013961C921E92129720EF30E015963C93F6
:103190002E93149780E491E017969C938E93169744
:1031A00019963C932E9318971B969C938E931A977F
:1031B00056961C9256971D961C921E921C971F960F
:1031C0001C921E921E9781E055968C9355975496AB
:1031D0008C9354972FEF3FEF53963C932E93529737
:1031E00051963C932E93509757968C935797589699
:1031F0001C9258975A961C921E925997D5968C936A
:10320000D5978AE0D6968C93D69788E0D7968C93FC
:10321000D79789E0D8968C93D897DA961C921E920D
:10322000D997DC961C921E92DB97DD961C92DD9757
:10323000DE961C92DE971092CD031092CE03109270
:10324000CF031092D0038DE09C968C939C978BE0DB
:103250009A968C939A978CE09B968C939B97E1E936
:10326000F7E0E491F0E0EE0FFF1FE258F84F859190
:1032700094915E969C938E935D97E3E7F7E094912B
:10328000D3969C93D397E5E9F7E0E491F0E0EE0F55
:10329000FF1FE258F84F2591349194963C932E935A
:1032A0009397E7E7F7E0849197968C939797E3E9F4
:1032B000F7E0E491F0E0EE0FFF1FE258F84F2591A0
:1032C000349192963C932E939197E5E7F7E0249101
:1032D00095962C939597E0E9F7E0E491F0E0EE0FF6
:1032E000FF1FE258F84F459154915C965C934E93C2
:1032F0005B97E2E7F7E03491D1963C93D197E4E90C
:10330000F7E0E491F0E0EE0FFF1FE05AF84F45912F
:10331000549190965C934E935F97E6E7F7E0E491C3
:103320009996EC939997E32FE095D296EC93D297E8
:103330009095D4969C93D497809598968C939897D3
:10334000209596962C93969786E191E08D939C9389
:103350000895CF93DF93CDB7DEB7CC54D1090FB624
:10336000F894DEBF0FBECDBF789484B5826084BD73
:1033700084B5816084BD85B5826085BD85B5816079
:1033800085BD80916E00816080936E0010928100F7
:1033900080918100826080938100809181008160B2
:1033A0008093810080918000816080938000809173
:1033B000B10084608093B1008091B00081608093FF
:1033C000B00080917A00846080937A0080917A00C6
:1033D000826080937A0080917A00816080937A0085
:1033E00080917A00806880937A001092C100E09109
:1033F0000103F091020382E08083E091FD02F091ED
:10340000FE021082E091FF02F09100038FEC8083B6
:1034100010920903E0910503F091060386E0808392
:10342000E0910303F0910403808180618083E09147
:103430000303F0910403808188608083E09103039B
:10344000F0910403808180688083E0910303F09110
:10345000040380818F7D80836BE072E081EF92E0D6
:103460000E94711440E050E0BA018EE893E00E949F
:10347000AA158AE00E948B0D898369E172E081EFD1
:1034800092E00E94EB1389810E9446148BE00E9417
:103490008B0D898360E372E081EF92E00E94EB1371
:1034A00089810E9446148CE00E948B0D898360E420
:1034B00072E081EF92E00E94EB1389810E94461432
:1034C0008DE00E948B0D898361E572E081EF92E0CF
:1034D0000E94EB1389810E9446148FE00E948B0D9D
:1034E000898362E672E081EF92E00E94EB138981AA
:1034F0000E94461483E397E00E94E60462E471E0D0
:1035000081EF92E00E94EB136AE070E080E090E0CF
:103510000E94C30589E197E00E94E6040E949E058F
:103520006B017C0170E060E08EE893E00E94351250
:1035300060E078EF8EE893E00E94351260EE77E06D
:103540008EE893E00E9435126FE170E08EE893E020
:103550000E94351270E060E08EE893E00E94351220
:103560000E949E05AB01BC014C195D096E097F09E3
:103570002AE030E081EF92E00E945D1464EF71E098
:1035800080E090E00E94C3058FEF96E00E94E60481
:103590000E948514AB01BC012AE030E081EF92E08B
:1035A0000E945D1468EB7BE080E090E00E94C30520
:1035B00085EE96E00E94E604809096039090970333
:1035C000209098033090990370E060E08EE893E0DB
:1035D0000E943512610101E0C01AD1080E949E05C7
:1035E0001A82198229813A8128153905A4F4EE241A
:1035F000EA9447E0F42E860150E040E070E060E09D
:103600008EE893E00E94791149815A814A5F5F4FA9
:103610005A834983E7CFB401615071097A83698382
:10362000B12CA12CA214B3049CF4EE24EA9437E04C
:10363000F32E850129813A8150E040E070E060E09E
:103640008EE893E00E94791176E0A70EB11CEACFD4
:103650000E949E0570E060E08EE893E00E943512C3
:103660000E949E05B12CA12CA814B90494F4EE2458
:10367000EA9427E0F22E8601950150E040E069814E
:103680007A818EE893E00E94791186E0A80EB11C41
:10369000EBCFB12CA12CA214B3049CF4EE24EA9439
:1036A00097E0F92E850130E020E050E040E06981AC
:1036B0007A818EE893E00E94791196E0A90EB11C00
:1036C000EACF0E949E0570E060E08EE893E00E94E1
:1036D00035120E949E05B12CA12CA814B90494F4B3
:1036E000EE24EA9487E0F82E10E000E09501A601B0
:1036F00070E060E08EE893E00E947911A6E0AA0EE7
:10370000B11CEBCFB12CA12CA214B30494F4EE2481
:10371000EA9407E0F02E850129813A81A60170E044
:1037200060E08EE893E00E947911B6E0AB0EB11C28
:10373000EBCF0E949E0570E060E08EE893E00E946F
:1037400035120E949E052B013C01B12CA12CA8141E
:10375000B90494F4EE24EA9417E0F12E10E000E0AE
:103760009501A60169817A818EE893E00E94791122
:1037700006E0A00EB11CEBCFB12CA12CA214B30417
:1037800094F4EE24EA94B7E0FB2E850130E020E0CB
:10379000A60169817A818EE893E00E94791116E092
:1037A000A10EB11CEBCF0E949E05AB01BC014419D8
:1037B0005509660977092AE030E081EF92E00E941E
:1037C0005D1464EF71E080E090E00E94C3058BEC33
:1037D00096E00E94E604C0909603D0909703E09094
:1037E0009803F090990370E060E08EE893E00E9407
:1037F00035120E949E054B015C011A8219822981B3
:103800003A812E153F0594F400E018EF96014981A6
:103810005A8170E060E08EE893E00E94CA08498116
:103820005A814B5F5F4F5A834983E9CF1A821982CD
:1038300069817A816C157D057CF40FE110E09701B8
:1038400050E040E08EE893E00E94590889819A8117
:1038500005969A838983ECCF0E949E05AB01BC013B
:10386000481959096A097B092AE030E081EF92E0A2
:103870000E945D1464EF71E080E090E00E94C30557
:1038800081EB96E00E94E604809096039090970367
:1038900097FE03C09FEF891A990A95948794C09068
:1038A0009803D0909903D7FE03C0AFEFCA1ADA0A83
:1038B000D594C79470E060E08EE893E00E943512E2
:1038C0008091980390919903A0909603B0909703EC
:1038D0008A159B050CF45C010E949E052B013C019E
:1038E00002E010E01A83098329813A812A153B05F9
:1038F000CCF4C90196958795A601481B590BB401D4
:10390000681B790BE0EEEE2EE7E0FE2E89018EE8D3
:1039100093E00E941A1149815A814A5F5F4F5A838E
:103920004983E2CF0E949E05AB01BC0144195509B1
:10393000660977092AE030E081EF92E00E945D1489
:1039400064EF71E080E090E00E94C30587E996E0B3
:103950000E94E604809196039091970397FD01964B
:1039600095958795BC01615071097A83698380912F
:1039700098039091990397FD019695958795DC01A1
:103980001197BC83AB8370E060E08EE893E00E9407
:1039900035128091980390919903009196031091AC
:1039A00097031E830D838017910714F49E838D83E4
:1039B000812C912C54012D813E8112161306DCF5C9
:1039C0006901D594C7940E949E052B013C012B8070
:1039D0003C802C183D0849815A814C195D096A01C7
:1039E00080EEE82EFF24FA940D811E819801A1013A
:1039F000B6018EE893E00E943B090E949E0564197F
:103A0000750986099709860E971EA81EB91E9FE1A3
:103A1000E92E98EFF92E0D811E819801A101B601C2
:103A20008EE893E00E941A116D817E8166507109C3
:103A30007E836D83C0CF2AE030E0B501A40181EF21
:103A400092E00E945D1464EF71E080E090E00E94DB
:103A5000C3058DE796E00E94E604A0909603B0901F
:103A60009703809098039090990370E060E08EE84F
:103A700093E00E9435120E949E052B013C018AE0D2
:103A800090E09A838983A981BA81AA15BB05A4F520
:103A90001AE0C12ED12CC814D9043CF58EE893E06D
:103AA0000E94930CA6014A5051090FE118EF25E13D
:103AB00030E069817A818EE893E00E94C709BFE116
:103AC000EB2EB8EFFB2E10E000E023E04AE050E0E0
:103AD000B60189819A810E94080A8EE893E00E94CB
:103AE000800DB4E1CB0ED11CD6CF09811A810C5EBA
:103AF0001F4F1A830983C7CF0E949E05AB01BC01EB
:103B000044195509660977092AE030E081EF92E00F
:103B10000E945D1483E696E00E94E604809196037D
:103B2000909197038C01065F1F4F18870F83809138
:103B30009803909199038C01065F1F4F1A8709879C
:103B40000E949E05698B7A8B8B8B9C8B06EF1FEFF7
:103B50001E830D830AE010E01C830B83712C612C03
:103B60000F811885601671060CF0D5C0D12CC12CC0
:103B700009851A85C016D1060CF0BDC08EE893E009
:103B80000E94930C2FEF3FEFA601465F5F4FB301FA
:103B90008EE893E00E948C0B2FEF3FEFA6014A5076
:103BA0005109B3018EE893E00E948C0B2FEF3FEF99
:103BB000A6016B817C818EE893E00E948C0B2FEF35
:103BC0003FEFA6016D817E818EE893E00E948C0B11
:103BD00088248394912C512C412CFAE02F2E312CE7
:103BE0000CEE1FEF1A830983A7EFAA2EBB24BA9409
:103BF0001FEF411A510A22E0820E911CA80CB91C39
:103C00007301E40CF51C2FEF3FEF8601020D131D2D
:103C10001E870D87A801B7018EE893E00E948C0BE8
:103C20008301041915092FEF3FEF4D855E85B8011B
:103C30008EE893E00E948C0B2FEF3FEFA601421914
:103C400053095E874D87B7018EE893E00E948C0B85
:103C50002FEF3FEF4D855E85B8018EE893E00E941F
:103C60008C0B82010C0D1D1D1E870D872FEF3FEF62
:103C7000A8018301020D131DB8018EE893E00E9494
:103C80008C0B2FEF3FEF4D855E85B30162197309F1
:103C90007E876D878EE893E00E948C0B7601E41896
:103CA000F5082FEF3FEFA701B8018EE893E00E94DF
:103CB0008C0B2FEF3FEFA7016D857E858EE893E09B
:103CC0000E948C0B4214530444F08EE893E00E944F
:103CD000800D74E1C70ED11C4BCFB7FC89CF11E02A
:103CE000211A310809811A810E5F1F4F1A83098337
:103CF000A00EB11E7DCF84E1680E711C0B811C816A
:103D00000C5E1F4F1C830B830D811E810C5E1F4FA9
:103D10001E830D8325CF0E949E05AB01BC0109893E
:103D20001A892B893C89401B510B620B730B2AE0CB
:103D300030E081EF92E00E945D1464EF71E080E07A
:103D400090E00E94C30589E496E00E94E604A090FA
:103D50009603B0909703B7FE03C01FEFA11AB10AF4
:103D6000B594A7949501215031093A832983C090D5
:103D70009803D0909903D7FE03C03FEFC31AD30A2C
:103D8000D594C7948601015011091C830B8370E000
:103D900060E08EE893E00E94351229813A813887ED
:103DA0002F830217130714F418870F830E949E05B0
:103DB0002B013C010B811C811A87098748011E8257
:103DC0001D821C821B82312C212CAC18BD082F8136
:103DD000388522163306E4F58B819C818827987FED
:103DE000CD80DE8030EEC32237E0D3228C299D299E
:103DF000610153E0D594C7945A95E1F74FE1C4228D
:103E0000DD24C82AD92A8501080D191D49855A853E
:103E10004A0D5B1D7401940169857A8589819A81B7
:103E20000E94F11155E0250E311C6B817C817B5F76
:103E30007C836B838D819E8188969E838D83A985EB
:103E4000BA851597BA87A987B5E08B0E911CBFCFAD
:103E50000E949E05AB01BC0144195509660977090A
:103E60002AE030E081EF92E00E945D1464EF71E09F
:103E700080E090E00E94C3058FE296E00E94E60495
:103E8000009196031091970317FF02C00F5F1F4F19
:103E9000159507959801215031093A8B298B40914E
:103EA0009803509199035A83498357FF04C04F5F89
:103EB0005F4F5A83498369817A81759567957C83C1
:103EC0006B837B0171E0E71AF10870E060E08EE837
:103ED00093E00E9435120E949E0589899A899A83EF
:103EE0008983E816F90614F4FA82E982D701298158
:103EF0003A81A21BB30BBE83AD83198E1A8E1B8E23
:103F00001C8E4B815C814150510925965FAF4EAFAD
:103F10002597B8016150710927967FAF6EAF27973B
:103F2000C801AB81BC818A1B9B0B29969FAF8EAFCA
:103F3000299712972B96BFAFAEAF2B9709811A81A5
:103F40000B3011050CF4F5C10E949E056BAB7CABE8
:103F50008DAB9EAB1AE0019FC02C11242C2D30E0BC
:103F60003AA329A3690183E0CC0CDD1C8A95E1F713
:103F7000A601407E57705AAB49ABC90123E0959525
:103F800087952A95E1F7482B592B5CA34BA32596DF
:103F90006EAD7FAD259789819A81680F791F7C83EB
:103FA0006B832796AEADBFAD2797A80FB91FBE8F05
:103FB000AD8F29960EAD1FAD29972D813E81020F41
:103FC000131F18A30F8F621773070CF491C3A988EE
:103FD000BA888D819E819A878987AB81BC81B88799
:103FE000AF830D8D1E8D1E8B0D8B8F8C98A08EE850
:103FF00093E00E94930C8F819885A985BA858A17D2
:104000009B0709F064C08A149B0454F09A2D8B2DF1
:10401000A814B90414F4982D892D4501A92EB82EA1
:104020004D895E894815590534F0A416B5060CF47F
:104030005A019E8A8D8A95016D897E89261B370BD0
:104040002F5F3F4F0BA11CA149855A858EE893E055
:104050000E94E30A8EE893E00E94800D0E949E0574
:104060000BA91CA92DA93EA9601B710B820B930BF8
:10407000298D3A8D4B8D5C8D260F371F481F591F98
:10408000298F3A8F4B8F5C8F49A15AA1D42ECC2413
:10409000CC2458EFD52269A97AA9C62AD72AEB8061
:1040A000FC800D8D1E8D97014F8D58A16D817E81F5
:1040B00089899A890E94F11189819A8105979A8349
:1040C0008983AD81BE811596BE83AD8337CFC40190
:1040D0008A199B092B813C81A985BA852A1B3B0B38
:1040E0000D891E890A191B091AA709A74F8158852E
:1040F0004A1B5B0B5E874D876D897E89681979093C
:104100007CA76BA7AF81B8850B811C81A01BB10B6D
:10411000BEA3ADA34F8158854017510709F489C04C
:104120002B966EAD7FAD2B97A981BA816A0F7B1F4D
:104130007E8B6D8B29843A84412C512C3201C12C09
:10414000D12C760149A55AA5052E000C660B770BDC
:104150004DA75EA76FA778ABA901330F660B770B4E
:104160004FAB58AF69AF7AAF0D851E85012E000C9D
:10417000220B330B0BAF1CAF2DAF3EAF9C01990F41
:10418000440B550B23962CAF3DAF4EAF5FAF23973B
:104190004D895E89421553050CF450C0C701B60124
:1041A0002FA938AD49AD5AAD0E94AB238501020F4E
:1041B000131F2D961FAF0EAF2D97C301B2012BAD6C
:1041C0003CAD4DAD5EAD0E94AB23B501620F731FD8
:1041D00023962CAD3DAD4EAD5FAD2397C20ED31EE1
:1041E000E41EF51E8DA59EA5AFA5B8A9480E591EC3
:1041F0006A1E7B1E601771074CF0962F872FB8013F
:104200002C969FAF2C972D968FAF2D972D962EAD78
:104210003FAD2D97261B370B2F5F3F4F0BA11CA1E6
:10422000A1018EE893E00E94E30A9FEF291A390A60
:10423000AFCF0F8118851E8B0D8B7CCF0BA51CA5D6
:10424000012E000C220B330B0D8B1E8B2F8B388F06
:1042500091014B815C81241B350BABA5BCA50E9451
:10426000CA236B017C01910169857A85261B370B76
:10427000A9A5BAA50E94CA232B013C018DA19EA12C
:10428000092E000CAA0BBB0B8DA39EA3AFA3B8A74E
:104290000D851E85012E000C220B330B0D871E870A
:1042A0002F87388B2F813885221533050CF4D2CE19
:1042B000C701B6012DA13EA14FA158A50E94AB2375
:1042C0008401020F131F1A870987C301B2012D85CC
:1042D0003E854F8558890E94AB23B501620F731F3D
:1042E0002D893E894F89588DC20ED31EE41EF51EBE
:1042F0008DA59EA5AFA5B8A9480E591E6A1E7B1EA6
:10430000601771072CF0962F872FB80199878A873D
:1043100029853A85261B370B2F5F3F4F0BA11CA128
:10432000A1018EE893E00E94E30A9FEF291A390A5F
:10433000B9CF2AE030E0498D5A8D6B8D7C8D81EFAD
:1043400092E00E945D1464EF71E080E090E00E94D2
:10435000C30585E196E00E94E60480919603909162
:10436000970397FD0196959587958C01015011094A
:104370001E830D83809198039091990397FD019678
:10438000959587959C012150310938872F8370E0DE
:1043900060E08EE893E00E9435128091980390913E
:1043A00099034090960350909703841595050CF45B
:1043B0002C010E949E0569877A878B879C871A82C9
:1043C0001982F12CE12CE414F5040CF092C0C70121
:1043D0009695879589809A80882438EF93222F803C
:1043E0003884281A390ACD80DE80C81AD90AA70174
:1043F000A3E056954795AA95E1F75E874D87841708
:10440000950714F49E878D878EE893E00E94930CA5
:104410008D859E85880F991F5701A81AB90A6D844A
:104420007E846C0C7D1C84019501A101B3018EE892
:1044300093E00E94E30AB701620D731D7C836B83D6
:10444000AB01415051099501B3018EE893E00E9400
:10445000E30A8D859E85280E391E9501A101B601BE
:104460008EE893E00E94C709CE0CDF1CB6016150B4
:1044700071099501A1018EE893E00E94C70921E02E
:104480004D855E85B101C3010E94BE0BAD85BE8521
:10449000CA1ADB0AB1E0CB1AD10822E04D855E854D
:1044A000B101C6010E94BE0BAB80BC800D851E858C
:1044B000A01AB10A11E0A11AB108840124E04D85C7
:1044C0005E85B501C6010E94BE0B28E04D855E8564
:1044D000B501C3010E94BE0B8EE893E00E94800DDF
:1044E00026E0E20EF11C49815A815A5F5A834983C2
:1044F0006ACF0E949E05AB01BC0109851A852B85F8
:104500003C85401B510B620B730B2AE030E081EFBE
:1045100092E00E945D1464EF71E080E090E00E9400
:10452000C3058BEF95E00E94E6048091960390917D
:10453000970397FD0196959587959C012150310928
:1045400038872F83809198039091990397FD019666
:1045500095958795AC01415051095A87498770E07C
:1045600060E08EE893E00E9435120E949E052B01C8
:104570003C0180919803909199036091960370910A
:1045800097037E876D878617970714F49E878D871C
:104590008D859E8553E0880F991F5A95E1F79A8380
:1045A0008983AD85BE85A531B1050CF464C0CD010C
:1045B0009595879529803A80B0EE2B22B7E03B2273
:1045C00089849A84881A990A0F811885081B190B07
:1045D0001C830B83CD84DE8443E0D594C7944A9535
:1045E000E1F78C159D050CF46C018EE893E00E94B8
:1045F000930CC601880F991FAD84BE84A81AB90A0E
:104600002B813C812C0D3D1D3E832D8371010D8539
:104610001E859501A4016D817E818EE893E00E9444
:10462000230B31E0A31AB1088C0C9D1C8B819C815B
:10463000800F911F8C199D09850121E0A601B4010D
:1046400001970E94080A22E0A601B4018D819E8193
:104650000E94080A8EE893E00E94800D4D855E85D9
:10466000465051095E874D8769817A81605371098F
:104670007A83698396CF0E949E05AB01BC014419E1
:104680005509660977092AE030E081EF92E00E943F
:104690005D1464EF71E080E090E00E94C30585EF57
:1046A00095E00E94E60462E471E081EF92E00E94EE
:1046B000EB1300E010E0198269818EE893E00E941C
:1046C000510D0E94851468EE73E080E090E00E9436
:1046D000C30579817F5F7983743071F70115110506
:1046E00051F30E946304882331F30E940000E3CF5A
:1046F000AF8CB8A02B813C813A8729874D815E81A0
:1047000058874F8369897A897E8B6D8B8D8C9E8CBF
:104710006ECCA1E21A2EAA1BBB1BFD010DC0AA1F65
:10472000BB1FEE1FFF1FA217B307E407F50720F01A
:10473000A21BB30BE40BF50B661F771F881F991F95
:104740001A9469F760957095809590959B01AC01DE
:10475000BD01CF010895052E97FB1EF400940E9421
:10476000C22357FD07D00E94892307FC03D04EF4D3
:104770000C94C22350954095309521953F4F4F4F53
:104780005F4F089590958095709561957F4F8F4FFD
:104790009F4F08950E94D223332312F48A1B9B0B50
:1047A0000C94E323A29FB001B39FC001A39F700D9F
:1047B000811D1124911DB29F700D811D1124911D29
:1047C00008950E94D223B7FF0895821B930B08958A
:1047D000EE0FFF1F0590F491E02D099481E090E029
:1047E000F8940C94F323F894FFCF00000000990490
:1047F000F9032604010557043504490400000000AC
:104800004810F903E613E5135807930C8C0B230BA0
:10481000C709E30A3813800D510D040D5908CA0861
:104820003B09351279111A11AA15F7060D0A00482D
:10483000656C6C6F20576F726C64210047726F6FEC
:1048400070004920696D706C6F72652074686565D1
:104850002C006D7920666F6F6E74696E67207475B9
:10486000726C696E6764726F6D65732E00416E6461
:1048700020686F6F7074696F75736C7920647261F2
:104880006E676C65206D6500776974682063726976
:104890006E6B6C792062696E646C65777572646C9E
:1048A00065732C004F7220492077696C6C2072650B
:1048B0006E64207468656500696E207468652067A1
:1048C0006F626265727761727473007769746820D1
:1048D0006D7920626C7572676C656372756E636862
:1048E000656F6E2C00736565206966204920646FD2
:1048F0006E27742100494C49393334312054657393
:10490000742100446973706C617920506F7765720F
:10491000204D6F64653A203078004D414443544C3B
:10492000204D6F64653A20307800506978656C20BE
:10493000466F726D61743A20307800496D61676529
:1049400020466F726D61743A2030780053656C6652
:1049500020446961676E6F737469633A2030780030
:107E0000112484B714BE81FFF0D085E080938100F7
:107E100082E08093C00088E18093C10086E0809377
:107E2000C20080E18093C4008EE0C9D0259A86E02C
:107E300020E33CEF91E0309385002093840096BBD3
:107E4000B09BFECF1D9AA8958150A9F7CC24DD24C4
:107E500088248394B5E0AB2EA1E19A2EF3E0BF2EE7
:107E6000A2D0813461F49FD0082FAFD0023811F036
:107E7000013811F484E001C083E08DD089C08234E0
:107E800011F484E103C0853419F485E0A6D080C0E4
:107E9000853579F488D0E82EFF2485D0082F10E0AE
:107EA000102F00270E291F29000F111F8ED06801E7
:107EB0006FC0863521F484E090D080E0DECF843638
:107EC00009F040C070D06FD0082F6DD080E0C81688
:107ED00080E7D80618F4F601B7BEE895C0E0D1E017
:107EE00062D089930C17E1F7F0E0CF16F0E7DF06D8
:107EF00018F0F601B7BEE89568D007B600FCFDCFD4
:107F0000A601A0E0B1E02C9130E011968C91119780
:107F100090E0982F8827822B932B1296FA010C0160
:107F200087BEE89511244E5F5F4FF1E0A038BF0790
:107F300051F7F601A7BEE89507B600FCFDCF97BE46
:107F4000E89526C08437B1F42ED02DD0F82E2BD052
:107F50003CD0F601EF2C8F010F5F1F4F84911BD097
:107F6000EA94F801C1F70894C11CD11CFA94CF0C13
:107F7000D11C0EC0853739F428D08EE10CD085E9AC
:107F80000AD08FE07ACF813511F488E018D01DD067
:107F900080E101D065CF982F8091C00085FFFCCF94
:107FA0009093C60008958091C00087FFFCCF809118
:107FB000C00084FD01C0A8958091C6000895E0E648
:107FC000F0E098E1908380830895EDDF803219F02E
:107FD00088E0F5DFFFCF84E1DECF1F93182FE3DFCA
:107FE0001150E9F7F2DF1F91089580E0E8DFEE27F6
:047FF000FF270994CA
:027FFE00040479
:00000001FF
